{
  "_format": "hh-sol-artifact-1",
  "contractName": "Staking",
  "sourceName": "contracts/Staking.sol",
  "abi": [
    {
      "inputs": [],
      "stateMutability": "payable",
      "type": "constructor"
    },
    {
      "inputs": [
        {
          "internalType": "uint256",
          "name": "positionId",
          "type": "uint256"
        },
        {
          "internalType": "uint256",
          "name": "newUnlockDate",
          "type": "uint256"
        }
      ],
      "name": "changeUnlockDate",
      "outputs": [],
      "stateMutability": "nonpayable",
      "type": "function"
    },
    {
      "inputs": [
        {
          "internalType": "uint256",
          "name": "positionId",
          "type": "uint256"
        }
      ],
      "name": "closePosition",
      "outputs": [],
      "stateMutability": "nonpayable",
      "type": "function"
    },
    {
      "inputs": [],
      "name": "currentPositionId",
      "outputs": [
        {
          "internalType": "uint256",
          "name": "",
          "type": "uint256"
        }
      ],
      "stateMutability": "view",
      "type": "function"
    },
    {
      "inputs": [
        {
          "internalType": "uint256",
          "name": "numDays",
          "type": "uint256"
        }
      ],
      "name": "getInterestRate",
      "outputs": [
        {
          "internalType": "uint256",
          "name": "",
          "type": "uint256"
        }
      ],
      "stateMutability": "view",
      "type": "function"
    },
    {
      "inputs": [],
      "name": "getLockPeriods",
      "outputs": [
        {
          "internalType": "uint256[]",
          "name": "",
          "type": "uint256[]"
        }
      ],
      "stateMutability": "view",
      "type": "function"
    },
    {
      "inputs": [
        {
          "internalType": "uint256",
          "name": "positionId",
          "type": "uint256"
        }
      ],
      "name": "getPositionById",
      "outputs": [
        {
          "components": [
            {
              "internalType": "uint256",
              "name": "positionId",
              "type": "uint256"
            },
            {
              "internalType": "address",
              "name": "walletAddress",
              "type": "address"
            },
            {
              "internalType": "uint256",
              "name": "createdDate",
              "type": "uint256"
            },
            {
              "internalType": "uint256",
              "name": "unlockDate",
              "type": "uint256"
            },
            {
              "internalType": "uint256",
              "name": "percentInterest",
              "type": "uint256"
            },
            {
              "internalType": "uint256",
              "name": "weiStaked",
              "type": "uint256"
            },
            {
              "internalType": "uint256",
              "name": "weiInterest",
              "type": "uint256"
            },
            {
              "internalType": "bool",
              "name": "open",
              "type": "bool"
            }
          ],
          "internalType": "struct Staking.Position",
          "name": "",
          "type": "tuple"
        }
      ],
      "stateMutability": "view",
      "type": "function"
    },
    {
      "inputs": [
        {
          "internalType": "address",
          "name": "walletAddress",
          "type": "address"
        }
      ],
      "name": "getPositionIdsForAddress",
      "outputs": [
        {
          "internalType": "uint256[]",
          "name": "",
          "type": "uint256[]"
        }
      ],
      "stateMutability": "view",
      "type": "function"
    },
    {
      "inputs": [
        {
          "internalType": "uint256",
          "name": "",
          "type": "uint256"
        }
      ],
      "name": "lockPeriods",
      "outputs": [
        {
          "internalType": "uint256",
          "name": "",
          "type": "uint256"
        }
      ],
      "stateMutability": "view",
      "type": "function"
    },
    {
      "inputs": [
        {
          "internalType": "uint256",
          "name": "numDays",
          "type": "uint256"
        },
        {
          "internalType": "uint256",
          "name": "basisPoints",
          "type": "uint256"
        }
      ],
      "name": "modifyLockPeriods",
      "outputs": [],
      "stateMutability": "nonpayable",
      "type": "function"
    },
    {
      "inputs": [],
      "name": "owner",
      "outputs": [
        {
          "internalType": "address",
          "name": "",
          "type": "address"
        }
      ],
      "stateMutability": "view",
      "type": "function"
    },
    {
      "inputs": [
        {
          "internalType": "address",
          "name": "",
          "type": "address"
        },
        {
          "internalType": "uint256",
          "name": "",
          "type": "uint256"
        }
      ],
      "name": "positionIdsByAddress",
      "outputs": [
        {
          "internalType": "uint256",
          "name": "",
          "type": "uint256"
        }
      ],
      "stateMutability": "view",
      "type": "function"
    },
    {
      "inputs": [
        {
          "internalType": "uint256",
          "name": "",
          "type": "uint256"
        }
      ],
      "name": "positions",
      "outputs": [
        {
          "internalType": "uint256",
          "name": "positionId",
          "type": "uint256"
        },
        {
          "internalType": "address",
          "name": "walletAddress",
          "type": "address"
        },
        {
          "internalType": "uint256",
          "name": "createdDate",
          "type": "uint256"
        },
        {
          "internalType": "uint256",
          "name": "unlockDate",
          "type": "uint256"
        },
        {
          "internalType": "uint256",
          "name": "percentInterest",
          "type": "uint256"
        },
        {
          "internalType": "uint256",
          "name": "weiStaked",
          "type": "uint256"
        },
        {
          "internalType": "uint256",
          "name": "weiInterest",
          "type": "uint256"
        },
        {
          "internalType": "bool",
          "name": "open",
          "type": "bool"
        }
      ],
      "stateMutability": "view",
      "type": "function"
    },
    {
      "inputs": [
        {
          "internalType": "uint256",
          "name": "numDays",
          "type": "uint256"
        }
      ],
      "name": "stakeEther",
      "outputs": [],
      "stateMutability": "payable",
      "type": "function"
    },
    {
      "inputs": [
        {
          "internalType": "uint256",
          "name": "",
          "type": "uint256"
        }
      ],
      "name": "tiers",
      "outputs": [
        {
          "internalType": "uint256",
          "name": "",
          "type": "uint256"
        }
      ],
      "stateMutability": "view",
      "type": "function"
    }
  ],
  "bytecode": "0x6080604052336000806101000a81548173ffffffffffffffffffffffffffffffffffffffff021916908373ffffffffffffffffffffffffffffffffffffffff16021790555060006009819055506102bc600c6000601e8152602001908152602001600020819055506103e8600c6000605a8152602001908152602001600020819055506104b0600c600060b4815260200190815260200160002081905550600d601e9080600181540180825580915050600190039060005260206000200160009091909190915055600d605a9080600181540180825580915050600190039060005260206000200160009091909190915055600d60b490806001815401808255809150506001900390600052602060002001600090919091909150556115d08061012a6000396000f3fe6080604052600436106100dd5760003560e01c80638da5cb5b1161007f578063b0f0475b11610059578063b0f0475b14610301578063b838ec861461032a578063c7c9d05514610367578063e4f9084114610390576100dd565b80638da5cb5b1461026957806399fbab8814610294578063a126d601146102d8576100dd565b806340d98a44116100bb57806340d98a441461018757806341ee13be146101c457806345eae373146101ef5780634c8f2a781461022c576100dd565b8063039af9eb146100e25780630c196a741461011f5780631131c8cd1461015c575b600080fd5b3480156100ee57600080fd5b5061010960048036038101906101049190610e1e565b6103ac565b6040516101169190610e5a565b60405180910390f35b34801561012b57600080fd5b5061014660048036038101906101419190610e1e565b6103c4565b6040516101539190610e5a565b60405180910390f35b34801561016857600080fd5b506101716103e1565b60405161017e9190610e5a565b60405180910390f35b34801561019357600080fd5b506101ae60048036038101906101a99190610ed3565b6103e7565b6040516101bb9190610fbe565b60405180910390f35b3480156101d057600080fd5b506101d961047e565b6040516101e69190610fbe565b60405180910390f35b3480156101fb57600080fd5b5061021660048036038101906102119190610fe0565b6104d6565b6040516102239190610e5a565b60405180910390f35b34801561023857600080fd5b50610253600480360381019061024e9190610e1e565b610507565b6040516102609190610e5a565b60405180910390f35b34801561027557600080fd5b5061027e61052b565b60405161028b919061102f565b60405180910390f35b3480156102a057600080fd5b506102bb60048036038101906102b69190610e1e565b61054f565b6040516102cf989796959493929190611065565b60405180910390f35b3480156102e457600080fd5b506102ff60048036038101906102fa9190610e1e565b6105c4565b005b34801561030d57600080fd5b50610328600480360381019061032391906110e3565b6108d5565b005b34801561033657600080fd5b50610351600480360381019061034c9190610e1e565b6109a8565b60405161035e91906111e3565b60405180910390f35b34801561037357600080fd5b5061038e600480360381019061038991906110e3565b610a83565b005b6103aa60048036038101906103a59190610e1e565b610b30565b005b600c6020528060005260406000206000915090505481565b6000600c6000838152602001908152602001600020549050919050565b60095481565b6060600b60008373ffffffffffffffffffffffffffffffffffffffff1673ffffffffffffffffffffffffffffffffffffffff16815260200190815260200160002080548060200260200160405190810160405280929190818152602001828054801561047257602002820191906000526020600020905b81548152602001906001019080831161045e575b50505050509050919050565b6060600d8054806020026020016040519081016040528092919081815260200182805480156104cc57602002820191906000526020600020905b8154815260200190600101908083116104b8575b5050505050905090565b600b60205281600052604060002081815481106104f257600080fd5b90600052602060002001600091509150505481565b600d818154811061051757600080fd5b906000526020600020016000915090505481565b60008054906101000a900473ffffffffffffffffffffffffffffffffffffffff1681565b600a6020528060005260406000206000915090508060000154908060010160009054906101000a900473ffffffffffffffffffffffffffffffffffffffff16908060020154908060030154908060040154908060050154908060060154908060070160009054906101000a900460ff16905088565b3373ffffffffffffffffffffffffffffffffffffffff16600a600083815260200190815260200160002060010160009054906101000a900473ffffffffffffffffffffffffffffffffffffffff1673ffffffffffffffffffffffffffffffffffffffff1614610668576040517f08c379a000000000000000000000000000000000000000000000000000000000815260040161065f90611282565b60405180910390fd5b60011515600a600083815260200190815260200160002060070160009054906101000a900460ff161515146106d2576040517f08c379a00000000000000000000000000000000000000000000000000000000081526004016106c9906112ee565b60405180910390fd5b6000600a600083815260200190815260200160002060070160006101000a81548160ff021916908315150217905550600a60008281526020019081526020016000206003015442111561080e576000600a600083815260200190815260200160002060060154600a600084815260200190815260200160002060050154610759919061133d565b905060003373ffffffffffffffffffffffffffffffffffffffff1682604051610781906113a2565b60006040518083038185875af1925050503d80600081146107be576040519150601f19603f3d011682016040523d82523d6000602084013e6107c3565b606091505b5050905080610807576040517f08c379a00000000000000000000000000000000000000000000000000000000081526004016107fe906113da565b60405180910390fd5b50506108d2565b60003373ffffffffffffffffffffffffffffffffffffffff16600a60008481526020019081526020016000206005015460405161084a906113a2565b60006040518083038185875af1925050503d8060008114610887576040519150601f19603f3d011682016040523d82523d6000602084013e61088c565b606091505b50509050806108d0576040517f08c379a00000000000000000000000000000000000000000000000000000000081526004016108c7906113da565b60405180910390fd5b505b50565b3373ffffffffffffffffffffffffffffffffffffffff1660008054906101000a900473ffffffffffffffffffffffffffffffffffffffff1673ffffffffffffffffffffffffffffffffffffffff1614610963576040517f08c379a000000000000000000000000000000000000000000000000000000000815260040161095a9061146c565b60405180910390fd5b80600c600084815260200190815260200160002081905550600d8290806001815401808255809150506001900390600052602060002001600090919091909150555050565b6109b0610d86565b600a600083815260200190815260200160002060405180610100016040529081600082015481526020016001820160009054906101000a900473ffffffffffffffffffffffffffffffffffffffff1673ffffffffffffffffffffffffffffffffffffffff1673ffffffffffffffffffffffffffffffffffffffff16815260200160028201548152602001600382015481526020016004820154815260200160058201548152602001600682015481526020016007820160009054906101000a900460ff1615151515815250509050919050565b3373ffffffffffffffffffffffffffffffffffffffff1660008054906101000a900473ffffffffffffffffffffffffffffffffffffffff1673ffffffffffffffffffffffffffffffffffffffff1614610b11576040517f08c379a0000000000000000000000000000000000000000000000000000000008152600401610b089061146c565b60405180910390fd5b80600a6000848152602001908152602001600020600301819055505050565b6000600c60008381526020019081526020016000205411610b86576040517f08c379a0000000000000000000000000000000000000000000000000000000008152600401610b7d906114d8565b60405180910390fd5b60405180610100016040528060095481526020013373ffffffffffffffffffffffffffffffffffffffff1681526020014281526020016201518083610bcb91906114f8565b42610bd6919061133d565b8152602001600c6000848152602001908152602001600020548152602001348152602001610c17600c60008581526020019081526020016000205434610d63565b815260200160011515815250600a600060095481526020019081526020016000206000820151816000015560208201518160010160006101000a81548173ffffffffffffffffffffffffffffffffffffffff021916908373ffffffffffffffffffffffffffffffffffffffff16021790555060408201518160020155606082015181600301556080820151816004015560a0820151816005015560c0820151816006015560e08201518160070160006101000a81548160ff021916908315150217905550905050600b60003373ffffffffffffffffffffffffffffffffffffffff1673ffffffffffffffffffffffffffffffffffffffff1681526020019081526020016000206009549080600181540180825580915050600190039060005260206000200160009091909190915055600160096000828254610d59919061133d565b9250508190555050565b60006127108284610d7491906114f8565b610d7e9190611569565b905092915050565b60405180610100016040528060008152602001600073ffffffffffffffffffffffffffffffffffffffff16815260200160008152602001600081526020016000815260200160008152602001600081526020016000151581525090565b600080fd5b6000819050919050565b610dfb81610de8565b8114610e0657600080fd5b50565b600081359050610e1881610df2565b92915050565b600060208284031215610e3457610e33610de3565b5b6000610e4284828501610e09565b91505092915050565b610e5481610de8565b82525050565b6000602082019050610e6f6000830184610e4b565b92915050565b600073ffffffffffffffffffffffffffffffffffffffff82169050919050565b6000610ea082610e75565b9050919050565b610eb081610e95565b8114610ebb57600080fd5b50565b600081359050610ecd81610ea7565b92915050565b600060208284031215610ee957610ee8610de3565b5b6000610ef784828501610ebe565b91505092915050565b600081519050919050565b600082825260208201905092915050565b6000819050602082019050919050565b610f3581610de8565b82525050565b6000610f478383610f2c565b60208301905092915050565b6000602082019050919050565b6000610f6b82610f00565b610f758185610f0b565b9350610f8083610f1c565b8060005b83811015610fb1578151610f988882610f3b565b9750610fa383610f53565b925050600181019050610f84565b5085935050505092915050565b60006020820190508181036000830152610fd88184610f60565b905092915050565b60008060408385031215610ff757610ff6610de3565b5b600061100585828601610ebe565b925050602061101685828601610e09565b9150509250929050565b61102981610e95565b82525050565b60006020820190506110446000830184611020565b92915050565b60008115159050919050565b61105f8161104a565b82525050565b60006101008201905061107b600083018b610e4b565b611088602083018a611020565b6110956040830189610e4b565b6110a26060830188610e4b565b6110af6080830187610e4b565b6110bc60a0830186610e4b565b6110c960c0830185610e4b565b6110d660e0830184611056565b9998505050505050505050565b600080604083850312156110fa576110f9610de3565b5b600061110885828601610e09565b925050602061111985828601610e09565b9150509250929050565b61112c81610e95565b82525050565b61113b8161104a565b82525050565b610100820160008201516111586000850182610f2c565b50602082015161116b6020850182611123565b50604082015161117e6040850182610f2c565b5060608201516111916060850182610f2c565b5060808201516111a46080850182610f2c565b5060a08201516111b760a0850182610f2c565b5060c08201516111ca60c0850182610f2c565b5060e08201516111dd60e0850182611132565b50505050565b6000610100820190506111f96000830184611141565b92915050565b600082825260208201905092915050565b7f4f6e6c7920706f736974696f6e2063726561746f72206d6179206d6f6469667960008201527f20706f736974696f6e0000000000000000000000000000000000000000000000602082015250565b600061126c6029836111ff565b915061127782611210565b604082019050919050565b6000602082019050818103600083015261129b8161125f565b9050919050565b7f506f736974696f6e20697320636c6f7365640000000000000000000000000000600082015250565b60006112d86012836111ff565b91506112e3826112a2565b602082019050919050565b60006020820190508181036000830152611307816112cb565b9050919050565b7f4e487b7100000000000000000000000000000000000000000000000000000000600052601160045260246000fd5b600061134882610de8565b915061135383610de8565b925082820190508082111561136b5761136a61130e565b5b92915050565b600081905092915050565b50565b600061138c600083611371565b91506113978261137c565b600082019050919050565b60006113ad8261137f565b9150819050919050565b60006113c46000836111ff565b91506113cf8261137c565b600082019050919050565b600060208201905081810360008301526113f3816113b7565b9050919050565b7f4f6e6c79206f776e6572206d6179206d6f64696679207374616b696e6720706560008201527f72696f6473000000000000000000000000000000000000000000000000000000602082015250565b60006114566025836111ff565b9150611461826113fa565b604082019050919050565b6000602082019050818103600083015261148581611449565b9050919050565b7f4d617070696e67206e6f7420666f756e64000000000000000000000000000000600082015250565b60006114c26011836111ff565b91506114cd8261148c565b602082019050919050565b600060208201905081810360008301526114f1816114b5565b9050919050565b600061150382610de8565b915061150e83610de8565b925082820261151c81610de8565b915082820484148315176115335761153261130e565b5b5092915050565b7f4e487b7100000000000000000000000000000000000000000000000000000000600052601260045260246000fd5b600061157482610de8565b915061157f83610de8565b92508261158f5761158e61153a565b5b82820490509291505056fea2646970667358221220dfe606829aca7a1fceb7cbbebec09aa60f5bdfe3d9ef090cf3f0cdd649b0f32664736f6c63430008110033",
  "linkReferences": {},
  "deployedLinkReferences": {}
}